:020000040800F2
:100000002CBA0020B50200082D03000845030008A3
:1000100035030008550300086503000800000000D0
:100020000000000000000000000000003112000885
:100030003D030008000000004D1200081D030008E9
:100040001D0300081D0300081D0300081D03000810
:100050001D0300081D03000885230008E92300088C
:1000600055240008C12400082D2500081D030008A0
:100070001D0300081D0300081D0300081D030008E0
:100080001D0300081D0300081D0300081D030008D0
:100090001D0300081D0300081D0300089925000822
:1000A0001D0300081D0300081D0300081D030008B0
:1000B000251800081D0300083D1800081D0300084E
:1000C0001D0300081D0300081D0300081D03000890
:1000D0001D030008251D00081D030008D129000884
:1000E000812700081D0300081D0300081D030008E8
:1000F0001D0300081D0300081D0300081D03000860
:100100001D0300081D0300081D0300081D0300084F
:100110001D0300081D030008252300081D03000817
:100120001D0300081D0300081D0300081D0300082F
:1001300080B582B000AF78600B46FB70064B1B8821
:10014000002B05D0FB78184601F08EFE01F09CFED6
:100150000837BD4680BD00BFC40B002080B582B00B
:1001600002AF0023009300204FF4E131024A002344
:1001700001F082FCBD4680BD3101000880B584B02D
:1001800000AF7860396000F0A7FFF860084B1B688B
:10019000BB60074B1A683B681A44054B1A60F86845
:1001A00000F0B8FFBB6818461037BD4680BD00BFE1
:1001B0000000002080B586B000AFF860B9607A60BA
:1001C0003B607B687B6101F071FE0346DAB27B69BC
:1001D0001A70012318461837BD4680BD80B586B019
:1001E00000AFF860B9607A603B607B683B610023D8
:1001F0007B610AE07B693A6913441B780020194649
:1002000001F06AFD7B6901337B617A693B689A4240
:10021000F0D33B6818461837BD4680BD80B483B024
:1002200000AF786039607B6813221A604FF0FF33AB
:1002300018460C37BD465DF8047B704780B485B026
:1002400000AFF860B9607A603B60FB6813221A6007
:100250004FF0FF3318461437BD465DF8047B7047F6
:1002600080B485B000AFF860B9607A60FB68132293
:100270001A604FF0FF3318461437BD465DF8047B13
:10028000704700BF80B483B000AF786039607B688E
:1002900000221A603B68012B02D03B68022B01D17F
:1002A000012300E0002318460C37BD465DF8047BAF
:1002B000704700BF80B582B000AF134B3B60134B5B
:1002C0007B6007E07B681A1D7A603A68111D39600F
:1002D00012681A607A680E4B9A42F3D30D4B7B601A
:1002E00004E07B681A1D7A6000221A607A680A4B63
:1002F0009A42F6D301F0F0FD1CF0BAF800F05AF87B
:100300000837BD4680BD00BF480B02080000002032
:1003100064020020680200202CB8002080B500AFE5
:100320000420014900F0A6FE64DF010880B400AF9C
:1003300000BFFDE780B400AF00BFFDE780B400AFB1
:1003400000BFFDE780B500AF0020014900F092FE3C
:1003500074DF010880B500AF0220014900F08AFE79
:1003600080DF010880B500AF0320014900F082FE64
:100370008CDF010880B582B000AF786004F034F8FB
:1003800001F0B0FD002318460837BD4680BD00BF10
:1003900080B582B000AF7860054B1B68002B03D09E
:1003A000012000F0C3FFF7E7012000F0BFFFF3E7F3
:1003B0006802002080B584B004AF00F08DFE1948BB
:1003C00019491CF05FF900F0E7FB184B1B68184A4D
:1003D000009200220192029316484FF480710F227E
:1003E0000C2300F0CFF90346002B02DA12481CF070
:1003F00049F9124B1B68124A0092002201920293A3
:1004000010484FF4006107220C2300F0BBF90346AB
:10041000002B02DA0C481CF035F90C481CF032F9BC
:1004200000F0F4FEA8DF0108D4DF01080800002076
:10043000910300086C0A0020E4DF0108040000209A
:10044000750300086C02002010E001083CE0010880
:1004500080B483B000AF78607B681B681A687B68E3
:100460001A600C37BD465DF8047B704780B584B0D8
:1004700000AF264B00221A60254B1B68FB60FB680F
:10048000002B06D0FB689B88062B02D1FB68072255
:100490009A80204B1B68184600F05EFA0346BB604A
:1004A0001D4BBA6853F822307B607B680C3BFB60C5
:1004B000BB689A00184B13441846FFF7C9FFFB6846
:1004C000DA88164B1A80FB68DB887B80134B7A88AE
:1004D0001A800F4B1B68FA689A4211D00C4B1B68AC
:1004E000002B09D00A4B1B689B889BB2062B03D1BB
:1004F000074B1B6807229A80F868062100F010F865
:10050000034BFA681A601037BD4680BD7861002041
:10051000BC610020740B00207C610020700B002067
:1005200080B582B000AF786039603B68052B1AD97E
:100530007B689B88052B39D87B681B899A001F4BE9
:100540001A447B680C331046194600F07DFA7B682C
:100550001B89012202FA03F31A46194B1B681A433E
:10056000174B1A6022E07B689B88052B1ED97B689D
:100570001B899A00114B1A447B680C3310461946AC
:1005800000F098FA7B681B891A460C4B53F822300E
:10059000002B0BD17B681B89012202FA03F3DB439A
:1005A0001A46074B1B681A40054B1A603B689AB203
:1005B0007B689A800837BD4680BD00BF7C61002003
:1005C000740B002080B584B000AF0346FB8000F0C0
:1005D000AFFDF860094B1B681B897B817A89FB881A
:1005E0009A4208D9FB68002B03D0054B01221A6000
:1005F00001E000F00FFE1037BD4680BDBC61002059
:100600007861002080B500AF00F066FD0B4B1B88C1
:100610009BB21AB20A4B002143F82210094B1B6807
:100620005A1E084B1A60084B1B6818460021FFF73A
:1006300077FF054B00221A6000F0E8FD700B0020E8
:10064000C06100206C0B0020BC61002080B483B02E
:1006500000AF0346FB80B7F90630002B0DD0B7F989
:100660000630002B09DDB7F90630202B05DCB7F981
:100670000620054B53F8223000E0002318460C37C3
:10068000BD465DF8047B7047C061002080B584B032
:1006900000AF0346FB80B7F906301846FFF7D6FFD8
:1006A000F860FB68002B03D0FB689B889BB201E0DD
:1006B0004FF0FF3318461037BD4680BD80B500AF00
:1006C00000F036FD0346002B00D00BE000F004FDE7
:1006D000054B1B6818460121FFF722FF00F00CFDB7
:1006E00000F098FD80BD00BFBC61002080B584B0E3
:1006F00000AF0346FB8000F0EFFC0346FB60B7F958
:100700000620124B53F82230BB60BB68002B12D07E
:10071000BB689B88012B0ED1B8680621FFF700FF4C
:10072000FB68184600F0F6FCBB681B891846FFF70B
:1007300049FF012305E0FB68184600F0EBFC4FF091
:10074000FF3318461037BD4680BD00BFC061002092
:1007500080B485B000AF78607B68FB6002E0FB6826
:100760000433FB60FB681A68FB689A42F7D0FA68AA
:100770007B68D31ABB60BB6818461437BD465DF86A
:10078000047B704780B58AB000AFF860B9603B6009
:100790001346FB71BB68BB61BB68383BBB60FA6842
:1007A000BB6813447B627B6A03F00103002B05D016
:1007B0007B6A013B7B62BB68013BBB607B6A03F0E9
:1007C0000203002B05D07B6A023B7B62BB68023BC5
:1007D000BB607B6A7B61FB790F2B02D94FF6EA7312
:1007E000ADE03B6803F00803002B11D0BB68FA684A
:1007F00013443B61FB683B6205E03A6A3B6A1A605E
:100800003B6A04333B623A6A3B699A42F5D303E0A0
:10081000FB68DAB2FB681A7000F08AFC0346002B12
:1008200001D100F059FC0023FB830123BB830CE0C2
:10083000B7F91C20444B53F82230002B02D1BB8B5C
:10084000FB8306E0BB8B0133BB83B7F91C30202B45
:10085000EEDDB7F91E30002B09D100F069FC03462C
:10086000002B01D100F048FC4FF6757367E0B7F933
:100870001E20354B796943F822107B69FA8BDA80A8
:10088000386B796BFA68BB6800F060FC02467B69E4
:100890001A607B69FA681A637B69BA695A63FB79E3
:1008A0009AB27B691A817B6900229A807B69002257
:1008B000DA607B6900221A617B69BA6BDA627B6954
:1008C00000225A617B6900229A617B691C331846B9
:1008D000002100F05BF87B6900229A621B4B1B68C9
:1008E0005A1C1A4B1A603B6803F00103002B04D01A
:1008F00078690121FFF714FE15E078690721FFF7F9
:100900000FFE3B6803F00403002B0CD100F010FC39
:100910000346002B04D100F0EFFB00F07BFC02E06B
:100920000B4B01221A6000F003FC0346002B05D19B
:10093000084B1B68002B01D000F0DEFBFB8B1BB2C9
:1009400018462837BD4680BDC06100206C0B0020D2
:1009500078610020BC61002080B485B000AF786071
:100960000023FB6005E07B685B087B60FB6801336C
:10097000FB607B6803F00103002BF4D0FB68184692
:100980001437BD465DF8047B704700BF80B483B068
:1009900000AF786039607B6800221A607B680022B3
:1009A0005A603B685A427B689A600C37BD465DF8D6
:1009B000047B704780B483B000AF78607B685A686E
:1009C0007B681B68D31A18460C37BD465DF8047B5C
:1009D000704700BF80B584B000AF78607868FFF7DB
:1009E000E9FFF860FB68002B09DD7B681B68591C78
:1009F0007A6811607A689268D243134001E04FF040
:100A0000FF3318461037BD4680BD00BF80B584B0A7
:100A100000AF78607868FFF7CDFFF8607B689A6870
:100A2000FB681344002B09DA7B685B68591C7A6801
:100A300051607A689268D243134001E04FF0FF336F
:100A400018461037BD4680BD80B483B000AF7860D3
:100A500039607B681B68002B1DD07B681A683B6877
:100A60001A607B681B685A683B685A607B681B6821
:100A70005B683A681A607B681B683A685A607B68F2
:100A80001B685A687B681B689A420DD17B681B689B
:100A90003A685A6008E07B683A681A603B683A68CE
:100AA0001A603B683A685A600C37BD465DF8047BB3
:100AB000704700BF80B483B000AF786039603B6896
:100AC0001A683B689A4213D03B685B683A681268C0
:100AD0001A603B681B683A6852685A607B681A68FB
:100AE0003B689A4207D13B681A687B681A6002E04B
:100AF0007B6800221A600C37BD465DF8047B7047A6
:100B000080B582B000AF78600B48796800F074F966
:100B10000A4B1B685A1E094B1A60094B7A6853F836
:100B2000322007497B68DB000B445B68184690471E
:100B30000837BD4680BD00BF980B0020680200202A
:100B4000780B002080B582B000AF7860786800F044
:100B5000EFF90837BD4680BD80B584B000AF78603E
:100B600000F0CCFBF860FA687B681344BB60BA689D
:100B7000FB689A4206D200BF00F0C0FB0246FB6849
:100B80009A42F9D800BF00F0B9FB0246BB689A420E
:100B9000F9D31037BD4680BD80B500AF014800F0E5
:100BA00003F880BD00A24A0480B584B000AF78602D
:100BB0000B48796800F060FB0A48042100F000F956
:100BC0000023FB6006E00748F96800F015F9FB68B0
:100BD0000133FB60FB68032BF5DD1037BD4680BD9C
:100BE000010B0008980B002080B500AF00F086FBD9
:100BF0000346184680BD00BF80B586B000AF786060
:100C00007B68062B04D900F093FA0346002B03D02F
:100C10007868FFF7A1FF24E00023FB6000233B611D
:100C200007F10C03184600F039F97B689A1E07F1AA
:100C30000C0310460C491A4600F072F878617B6983
:100C4000B3F1FF3F08D107F10C03184600F070F92B
:100C50007868FFF781FF04E007F10C03184600F005
:100C60001DF91837BD4680BD450B000880B586B01C
:100C700000AFF860B9607A60FB7000F059FA034683
:100C8000002B01D100F028FA214800F0E5F8786146
:100C90007B69B3F1FF3F0CD100F04AFA0346002B09
:100CA00001D100F029FA1B481BF064FD4FF0FF331F
:100CB00029E0194B7A69B96843F83210164A7B6902
:100CC000DB0013447A685A60FB78002B07D07B69FD
:100CD0009BB21BB2F868194600F0F2FA06E07B6995
:100CE0009BB21BB2F868194600F0DAFA0B4B1B688E
:100CF0005A1C0A4B1A6000F01BFA0346002B01D164
:100D000000F0FAF97B6918461837BD4680BD00BF70
:100D1000980B002068E00108780B00206802002092
:100D200080B584B000AFF860B9607A60F868B968DF
:100D30007A680023FFF79AFF034618461037BD462E
:100D400080BD00BF80B584B000AFF860B9607A6044
:100D5000F868B9687A680123FFF788FF03461846E8
:100D60001037BD4680BD00BF80B584B000AF78604D
:100D700000F0B2F90346FB607B689BB21BB21846D9
:100D800000F0AEFA0B48796800F036F80A4B7A6842
:100D9000002143F83210094B1B685A1E074B1A609A
:100DA000FB68184600F0B6F9012318461037BD4617
:100DB00080BD00BF980B0020780B00206802002047
:100DC00080B485B000AF786039600023FB6009E033
:100DD000FB689B007A6813444FF0FF321A60FB688F
:100DE0000133FB60FA683B689A42F1DD1437BD4677
:100DF0005DF8047B704700BF80B584B000AF7860B9
:100E000039603B680133FB60FB689B007A681344E0
:100E10001B68B3F1FF3F0FD07B681B68B3F1FF3F46
:100E20000AD0FB689B007A6813441A687B681B68C9
:100E30000848F9681BF026FCFB689B007A6813449D
:100E40007A6812681A607B683A681A601037BD4683
:100E500080BD00BF7CE0010880B485B000AF786041
:100E60007B681B68FB60FB68B3F1FF3F07D0FB6842
:100E700001339B007A6813441A687B681A60FB6828
:100E800001339B007A6813444FF0FF321A60FB680D
:100E900018461437BD465DF8047B704780B582B0B4
:100EA00000AF78607B681846012100F0CFF8034658
:100EB000002B02D0786800F003F80837BD4680BDEB
:100EC00080B586B000AF786000F006F903467B611C
:100ED0007B681B68002B07D17B6801221A607B6945
:100EE000184600F017F91DE0104B1B681846022148
:100EF000FFF716FB0D4B1B681B899BB2FB600B4B6E
:100F00001B683B610023BB607B681A1D07F1080367
:100F10001046194600F070F87B69184600F0FAF8A0
:100F200000F078F91837BD4680BD00BFBC610020D5
:100F300080B586B000AF786000F0CEF803467B61E4
:100F40007B681B68002B18D07B680433184600F0C0
:100F50003DF838613B69002B0CD03B699B68FB6016
:100F6000F8680721FFF7DCFAFB681B891846FFF7D2
:100F700029FB02E07B6800221A607B69184600F0BA
:100F8000C9F81837BD4680BD80B485B000AF786021
:100F900039607B68FB600FE0FB681A683B689A4227
:100FA00007D13B681A68FB681A603B6800221A6028
:100FB00006E0FB681B68FB60FB681B68002BEBD13D
:100FC0001437BD465DF8047B704700BF80B485B020
:100FD00000AF78607B681B68FB60FB68002B03D068
:100FE000FB681A687B681A60FB6818461437BD46B0
:100FF0005DF8047B704700BF80B485B000AF7860B7
:1010000039607B68FB6011E0FB681B685A683B68CD
:101010005B689A4207D9FB681A683B681A60FB68EC
:101020003A681A600CE0FB681B68FB60FB681B6891
:10103000002BE9D1FB683A681A603B6800221A600D
:101040001437BD465DF8047B704700BF80B584B09F
:1010500000AF7860396000F03FF87B681B68FB6088
:101060007B683A681A6000F047F8FB68184610374A
:10107000BD4680BD80B582B000AF78603960104B4E
:101080007A681A600F48396850221BF0C0FC0E4B7A
:101090001B68002B0ED10C4B01221A600B481BF071
:1010A00069FB38681BF066FB09481BF063FB0948C5
:1010B0001BF060FB00F010F8042000F037F9FBE7AC
:1010C0009462002044620020AC0B0020CCE00108B8
:1010D000F0E0010814E1010880B483B000AFEFF341
:1010E00010833B603B687B6072B67B6818460C37A8
:1010F000BD465DF8047B704780B483B000AF62B634
:10110000EFF310837B607B6818460C37BD465DF8B3
:10111000047B704780B485B000AF78607B68FB606B
:10112000FB6883F310881437BD465DF8047B704775
:1011300080B483B000AFEFF305837B607B68DBB2E4
:1011400018460C37BD465DF8047B704780B489B003
:1011500000AFF860B9607A603B607A683B6813441E
:10116000FB61FB69043BFB61FB694FF077321A605E
:10117000FB69043BFB61FB69224A1A60FB69043B83
:10118000FB61FA68FB691A60FB69043BFB611E4A5C
:10119000FB691A60FB69043BFB61FB6900221A6072
:1011A0000323BB6108E0FB69043BFB61BA69FB698F
:1011B0001A60BB69013BBB61BB69002BF3DCFB69B7
:1011C000043BFB61BA68FB691A600B237B6108E092
:1011D000FB69043BFB617A69FB691A607B69013B2F
:1011E0007B617B69032BF3DCFB69043BFB61FB69DF
:1011F0006FF002021A60FB6918462437BD465DF89D
:10120000047B70470002000105060008FFF774FF29
:1012100001DF00BF80B400AF044B044A526842F0C3
:1012200080525A60BD465DF8047B704700ED00E0D7
:10123000FFF71CF904480068016801C9B1E8F00F24
:1012400081F3098800470000BC610020EFF30980AA
:1012500020E9F00F40F804ED064909680860FFF73F
:1012600005F904480068016801C9B1E8F00F81F38D
:1012700009880047BC61002080B582B000AF78606B
:101280003960054B7A681A6000200121034A00F09A
:101290009DF80837BD4680BD986200200D130008F8
:1012A00080B582B000AF78600B467B80B7F9023022
:1012B000002019467A6800F00DF90837BD4680BD58
:1012C00080B582B000AF78600B467B80B7F9023002
:1012D000002019467A6800F019F90837BD4680BD2C
:1012E00080B582B000AF0346FB80B7F9063000201E
:1012F000194600F0BBF90837BD4680BD80B500AF88
:10130000002000F007FA0346184680BD80B582B081
:1013100000AF7860044B1B687A6892B212B2104634
:1013200098470837BD4680BD9862002080B483B0DE
:1013300000AF0346FB7100235BB218460C37BD4675
:101340005DF8047B704700BF80B483B000AF0346F4
:10135000FB71084B97F907205209F97901F01F0139
:10136000012000FA01F143F822100C37BD465DF868
:10137000047B704700E100E080B483B000AF034617
:101380003960FB7197F90730002B0BDA0D49FB79B7
:1013900003F00F03043B3A68D2B21201D2B20B44FD
:1013A0001A7609E0084997F907303A68D2B2120173
:1013B000D2B20B4483F800230C37BD465DF8047BA2
:1013C000704700BF00ED00E000E100E080B588B0AC
:1013D00000AF0346B9607A60FB73FB7B002B02D041
:1013E000012B16D02AE0364B354AD26942F003026F
:1013F000DA611C200121FFF7BFFF1D200121FFF74B
:10140000BBFF4FF08043FB612E4BBB611023FB758C
:1014100017E02B4B2A4AD26942F00C02DA611E20F7
:101420000121FFF7A9FF32200121FFF7A5FF264B7D
:10143000FB61264BBB612023FB7502E04FF0FF33BD
:1014400039E0FA7B224B796843F82210FB69842249
:101450001A80BB6904221A80FB699B889BB243F007
:1014600020039AB2FB699A80FB694FF6FF729A8556
:10147000BB689BB21A46D2001344DB009AB2FB69E8
:101480001A85BB691B899AB2FB7D9BB213439AB242
:10149000BB691A81BB691B899BB243F007039AB2EF
:1014A000BB691A81FB7B184600F09EF9FB7B18464E
:1014B00000F05EF9002318462037BD4680BD00BF0E
:1014C000001002400004004000080040000C0040F2
:1014D000B00B002080B586B000AF0346B9607A60DB
:1014E000FB73FB7B184600F015F903467B617A69B4
:1014F0007B681344013BFA7B1046B9681A4600F03A
:1015000005F8034618461837BD4680BD80B487B03D
:1015100000AF0346B9607A60FB7300237B61002350
:101520003B61FB7B002B02D0012B06D00AE04FF081
:1015300080437B614A4B3B6107E04A4B7B614A4BEE
:101540003B6102E04FF0FF3384E07B699B899BB2F3
:1015500023F001039AB27B699A81BB68032B75D88B
:1015600001A252F823F000BF79150008AD1500085C
:10157000E1150008151600087B689AB27B699A8607
:101580007B681B0C9AB23B699A867B691B8A9BB26B
:1015900023F002039AB27B691A827B699B899BB212
:1015A00043F002039AB27B699A8152E07B689AB257
:1015B0007B691A877B681B0C9AB23B691A877B6927
:1015C0001B8A9BB223F004039AB27B691A827B695F
:1015D0009B899BB243F004039AB27B699A8138E0FD
:1015E0007B689AB27B699A877B681B0C9AB23B69CD
:1015F0009A877B691B8A9BB223F008039AB27B69A6
:101600001A827B699B899BB243F008039AB27B697B
:101610009A811EE07B689AB27B69A3F840207B68C0
:101620001B0C9AB23B69A3F840207B691B8A9BB2D2
:1016300023F010039AB27B691A827B699B899BB263
:1016400043F010039AB27B699A8102E04FF0FF33B6
:1016500000E0002318461C37BD465DF8047B704748
:101660000004004000080040000C004080B485B039
:1016700000AF03463960FB71FB79002B02D0012BD0
:1016800004D006E04FF08043FB6005E0204BFB6098
:1016900002E04FF0FF3335E03B68032B2ED801A268
:1016A00052F823F0B5160008C7160008D91600082E
:1016B000EB160008FB689B899BB223F002039AB2E9
:1016C000FB689A811DE0FB689B899BB223F00403B1
:1016D0009AB2FB689A8114E0FB689B899BB223F065
:1016E00008039AB2FB689A810BE0FB689B899BB266
:1016F00023F010039AB2FB689A8102E04FF0FF33A7
:1017000000E0002318461437BD465DF8047B70479F
:101710000008004080B483B000AF0346FB71FB7942
:10172000002B02D0012B0BD014E04FF080439B8C98
:101730009BB21A460B4B9B8C9BB21B0413430AE0D3
:10174000094B9B8C9BB21A46084B9B8C9BB21B048B
:10175000134300E0002318460C37BD465DF8047BB8
:10176000704700BF0004004000080040000C00402B
:1017700080B483B000AF0346FB71FB79012B16D018
:10178000022B25D0002B24D1144B144A128892B27C
:1017900042F0010292B21A804FF080434FF0804233
:1017A000128892B242F0010292B21A8011E00C4B00
:1017B0000B4A128892B242F0010292B21A80094B8F
:1017C000084A128892B242F0010292B21A8000E0F6
:1017D00000BF0C37BD465DF8047B70470004004035
:1017E000000C00400008004080B582B000AF034606
:1017F000FB71FB79012B0AD0022B0FD0002B0ED1ED
:101800001C20FFF7A1FD1D20FFF79EFD07E01E2015
:10181000FFF79AFD3220FFF797FD00E000BF083781
:10182000BD4680BD00B500204FF08041024A00F067
:1018300011F801BC004700BF0004004000B50020C3
:101840000249034A00F006F801BC004700080040C6
:10185000000C004080B584B000AF0346B9607A60E8
:10186000FB73BB681B8A9BB203F00203002B26D0DC
:10187000BB689B899BB203F00203002B1FD0BB689F
:101880001B8A9BB223F002039AB2BB681A827B6860
:101890009B8C9AB27B689B8E9BB29A420ED3BB689C
:1018A0009B899BB223F002039AB2BB689A81FA7BB0
:1018B0004E4B53F82230002098478EE08DE0BB68F5
:1018C0001B8A9BB203F00403002B26D0BB689B89C4
:1018D0009BB203F00403002B1FD0BB681B8A9BB292
:1018E00023F004039AB2BB681A827B689B8C9AB27D
:1018F0007B681B8F9BB29A420ED3BB689B899BB2BD
:1019000023F004039AB2BB689A81FA7B374B53F8F1
:1019100022300120984760E05FE0BB681B8A9BB2E1
:1019200003F00803002B26D0BB689B899BB203F011
:101930000803002B1FD0BB681B8A9BB223F008034F
:101940009AB2BB681A827B689B8C9AB27B689B8F29
:101950009BB29A420ED3BB689B899BB223F00803CB
:101960009AB2BB689A81FA7B204B53F8223002204E
:10197000984732E031E0BB681B8A9BB203F010034A
:10198000002B27D0BB689B899BB203F01003002B70
:1019900020D0BB681B8A9BB223F010039AB2BB68AD
:1019A0001A827B689B8C9AB27B68B3F840309BB2FA
:1019B0009A420ED3BB689B899BB223F010039AB264
:1019C000BB689A81FA7B094B53F822300320984771
:1019D00003E002E0BB6800221A82054B1B68002B63
:1019E00001D0FFF717FC1037BD4680BDB00B0020BB
:1019F0007861002080B483B000AF0346FB71084BD0
:101A000097F907205209F97901F01F01012000FA26
:101A100001F143F822100C37BD465DF8047B704796
:101A200000E100E080B483B000AF03463960FB7191
:101A300097F90730002B0BDA0D49FB7903F00F0300
:101A4000043B3A68D2B21201D2B20B441A7609E0D2
:101A5000084997F907303A68D2B21201D2B20B4462
:101A600083F800230C37BD465DF8047B704700BF48
:101A700000ED00E000E100E080B586B000AFB960A5
:101A80007A603B600346FB73FB7B1846B96800F045
:101A900037F878617B69002B01DA7B6928E0FB7BF2
:101AA000002B23D125200121FFF7BCFF2520FFF7C4
:101AB000A1FF114B104A928992B242F0200292B2D9
:101AC0009A8100BFFA7B0D4913465B0013449B00CB
:101AD0000B447A681A60FA7B084913465B0013448A
:101AE0009B000B443A685A60002301E06FF0010349
:101AF00018461837BD4680BD00380140B80B00209D
:101B000090B58BB000AF03463960FB71FB79002BB9
:101B10001AD16D4B7B626D4B3B620A23FB6109233B
:101B2000BB616B4B7B616B4B6A4A926942F48042AA
:101B30009A61684B674A926942F004029A6100BF59
:101B4000BB69072B19D802E06FF00103B7E03B6ACD
:101B50001A68BB699B000F2101FA03F3DB431A40AB
:101B60003B6A1A603B6A1A68BB699B000B2101FA49
:101B700003F31A433B6A1A601AE03B6A5A68BB696E
:101B800003F18043083B9B000F2101FA03F3DB4381
:101B90001A403B6A5A603B6A5A68BB6903F180434A
:101BA000083B9B000B2101FA03F31A433B6A5A607E
:101BB000FB69072B15D83B6A1A68FB699B000F214C
:101BC00001FA03F3DB431A403B6A1A603B6A1A6866
:101BD000FB699B00042101FA03F31A433B6A1A6074
:101BE0001AE03B6A5A68FB6903F18043083B9B009B
:101BF0000F2101FA03F3DB431A403B6A5A603B6A48
:101C00005A68FB6903F18043083B9B00042101FAF9
:101C100003F31A433B6A5A6078691AF07BF804466A
:101C20003B681B0118461AF075F803462046194612
:101C30001AF07CF903463B6138691AF033FA03461F
:101C400018461AF00FFA0346FB81FB8918461AF072
:101C500065F803463869194619F0AAFF0346184685
:101C60004FF083411AF0AEF8034618461AF01AFAFC
:101C7000034618461AF0F6F903467B737B6A002286
:101C80001A817B6A1B899BB29AB2FB891B0199B2AC
:101C90007B7B9BB203F00F039BB20B439BB21343BE
:101CA0009BB29AB27B6A1A817B6A9B899BB243F48E
:101CB000005343F00C039AB27B6A9A8100231846C2
:101CC0002C37BD4690BD00BF0038014000080140E0
:101CD00000A24A040010024080B485B000AF024662
:101CE0000B46FA71BB71FB79002B03D10C4BFB60E7
:101CF00000BF02E04FF0FF330BE0FB681B889BB294
:101D000003F08003002BF8D0BB799AB2FB689A806D
:101D1000012318461437BD465DF8047B704700BFA9
:101D20000038014080B500AF0020024900F004F8FF
:101D300080BD00BF0038014090B585B000AF0346BC
:101D40003960FB713B681B889BB203F02003002BBA
:101D500019D03B689B889BB2FB73FA7926491346DE
:101D60005B0013449B000B441C68FA79224913461C
:101D70005B0013449B000B4408331A68FB7B10463E
:101D80001946A0472EE03B681B889BB203F008036E
:101D9000002B02D03B689B8824E03B681B889BB2E9
:101DA00003F08003002B1DD0FA79134913465B0022
:101DB00013449B000B445968FA790F4813465B00A3
:101DC00013449B00034408331B68184688470346A6
:101DD000002B07D13B689B899BB223F080039AB20A
:101DE0003B689A81054B1B68002B01D0FFF712FA64
:101DF0001437BD4690BD00BFB80B002078610020AD
:101E000080B586B004AF11481149802204F0DEFA93
:101E1000104B00930D4B01930F4B02930F484FF45F
:101E2000806106220923FEF7ADFC0346FB800C4BC4
:101E3000FA881A80B7F906301846FEF757FC0948A9
:101E40001AF098FC0837BD4680BD00BF9C62002098
:101E5000C80B0020E585010818E10108480C0020A6
:101E6000C40B002020E1010880B582B000AF78608B
:101E70007B68DBB20348194604F00EFB0837BD4609
:101E800080BD00BF9C62002080B582B000AF0023FF
:101E90007B80054B1B883A461BB21046194602F060
:101EA00093FB0837BD4680BDC40B002080B582B0CF
:101EB00000AF0023FB71074B1B881AB2FB1D1046B5
:101EC0001946012205F01EFDFB7918460837BD466C
:101ED00080BD00BFC40B002080B500AF02F0F0FC55
:101EE00080BD00BF80B500AF00F004F800231846A5
:101EF00080BD00BF80B582B000AF00F099FD1848EA
:101F00001AF0C0FB17481121174A00F057F817487C
:101F10001749012213F062FE0346FB71FB79002B87
:101F200007D0FB79184603F0E5F912481AF0AAFB2E
:101F300003E011480E491AF0A5FB09F0CDFD09F0A8
:101F400075FC02F057FD0D481AF09CFB0C4B1B680A
:101F500018460C4904F096F90837BD4680BD00BF0D
:101F600034E101088C1700204D830108481000203F
:101F7000ACE1010850E1010868E1010884E10108D1
:101F80000C000020A4E1010880B582B000AF7860A9
:101F9000786800F07FF8786800F0C2F8786800F0A0
:101FA00005F9786800F098F9786800F045F900BF05
:101FB0007B6818460837BD4680BD00BF80B586B037
:101FC00000AFF8600B467A60FB720123FB757B68FB
:101FD000002B01D101232DE0FB7A103B032B27D8E6
:101FE00001A252F823F000BFF91F000807200008E3
:101FF0001520000823200008F868796800F01EF812
:102000000346FB7515E0F868796800F05DF8034653
:10201000FB750EE0F868796800F09CF80346FB75E4
:1020200007E0F868796800F0DBF80346FB7500E02C
:1020300000BFFB7D18461837BD4680BD80B485B013
:1020400000AF786039600023BB730023FB7310E09E
:10205000FA7B0F4B53F82230002B07D10123BB73BF
:10206000FA7B0B4B396843F8221005E0FB7B013308
:10207000FB73FB7B072BEBD9BB7B002B01D0002331
:1020800000E0012318461437BD465DF8047B704715
:102090008012002080B485B000AF78600023FB730D
:1020A00007E0FA7B074B002143F82210FB7B01334A
:1020B000FB73FB7B072BF4D91437BD465DF8047B1B
:1020C000704700BF8012002080B485B000AF7860F8
:1020D00039600023BB730023FB7310E0FA7B0F4BC6
:1020E00053F82230002B07D10123BB73FA7B0B4B33
:1020F000396843F8221005E0FB7B0133FB73FB7B5F
:10210000072BEBD9BB7B002B01D0002300E0012380
:1021100018461437BD465DF8047B7047A0120020B6
:1021200080B485B000AF78600023FB7307E0FA7BD2
:10213000074B002143F82210FB7B0133FB73FB7B31
:10214000072BF4D91437BD465DF8047B704700BFF8
:10215000A012002080B485B000AF78603960002301
:10216000BB730023FB7310E0FA7B0F4B53F8223054
:10217000002B07D10123BB73FA7B0B4B396843F863
:10218000221005E0FB7B0133FB73FB7B072BEBD9B4
:10219000BB7B002B01D0002300E00123184614373D
:1021A000BD465DF8047B7047C012002080B485B046
:1021B00000AF78600023FB7307E0FA7B074B002138
:1021C00043F82210FB7B0133FB73FB7B072BF4D915
:1021D0001437BD465DF8047B704700BFC012002075
:1021E00080B485B000AF786039600023BB730023F2
:1021F000FB7310E0FA7B0F4B53F82230002B07D112
:102200000123BB73FA7B0B4B396843F8221005E0BE
:10221000FB7B0133FB73FB7B072BEBD9BB7B002BD9
:1022200001D0002300E0012318461437BD465DF8B5
:10223000047B7047E012002080B485B000AF786066
:102240000023FB7307E0FA7B074B002143F82210C1
:10225000FB7B0133FB73FB7B072BF4D91437BD46A3
:102260005DF8047B704700BFC012002080B487B0C7
:1022700000AFF8607A603B600B46FB720023FB7591
:102280001EE0F97AFA7D134BC9000A4453F8323044
:10229000002B12D1F97AFA7D0E4BC9000A447968F5
:1022A00043F83210F97AFB7D0A4AC9000B44DB007F
:1022B00013443A685A60002306E0FB7D0133FB7546
:1022C000FB7D072BDDD9012318461C37BD465DF881
:1022D000047B70470013002080B485B000AF7860A5
:1022E0000023BB7313E00023FB730AE0B97BFA7B86
:1022F0000B4BC9000A44002143F83210FB7B013329
:10230000FB73FB7B072BF1D9BB7B0133BB73BB7B1F
:102310000F2BE8D91437BD465DF8047B704700BF2A
:102320000013002080B582B000AF1348012111F0E6
:10233000EFFC0023FB710DE0FA79104B53F82230CB
:10234000002B04D0FA790D4B53F822309847FB79D3
:102350000133FB71FB79072BEED9094B1B68002B6E
:102360000CBF00230123DBB2002B01D0FEF752FF8C
:1023700000BF0837BD4680BD00100040A0120020FD
:102380007861002080B582B000AF012010F0DEFE41
:102390000023FB7113E0FA79114B53F83230002B14
:1023A0000AD0FA790E4B53F83220FB790C49DB0046
:1023B0000B445B6818469047FB790133FB71FB794E
:1023C000072BE8D9074B1B68002B0CBF0023012308
:1023D000DBB2002B01D0FEF71DFF0837BD4680BDE4
:1023E000001300207861002080B582B000AF022089
:1023F00010F0ACFE0023FB7116E0FA79134B0832A3
:1024000053F83230002B0CD0FA79104B083253F8C5
:102410003220FB790D490833DB000B445B6818461A
:102420009047FB790133FB71FB79072BE5D9084B0A
:102430001B68002B0CBF00230123DBB2002B01D053
:10244000FEF7E8FE0837BD4680BD00BF0013002040
:102450007861002080B582B000AF042010F076FED5
:102460000023FB7116E0FA79134B103253F8323027
:10247000002B0CD0FA79104B103253F83220FB7934
:102480000D491033DB000B445B6818469047FB791D
:102490000133FB71FB79072BE5D9084B1B68002B37
:1024A0000CBF00230123DBB2002B01D0FEF7B2FEEC
:1024B0000837BD4680BD00BF0013002078610020B2
:1024C00080B582B000AF082010F040FE0023FB7101
:1024D00016E0FA79134B183253F83230002B0CD037
:1024E000FA79104B183253F83220FB790D49183322
:1024F000DB000B445B6818469047FB790133FB71A6
:10250000FB79072BE5D9084B1B68002B0CBF002378
:102510000123DBB2002B01D0FEF77CFE0837BD465D
:1025200080BD00BF001300207861002080B582B01C
:1025300000AF102010F00AFE0023FB7116E0FA79BC
:10254000134B203253F83230002B0CD0FA79104B59
:10255000203253F83220FB790D492033DB000B4445
:102560005B6818469047FB790133FB71FB79072BB9
:10257000E5D9084B1B68002B0CBF00230123DBB2FD
:10258000002B01D0FEF746FE0837BD4680BD00BFD8
:10259000001300207861002080B582B000AF2020B9
:1025A00010F0B0FD0346002B0CBF00230123DBB26B
:1025B000002B20D0202010F0C9FD0023FB7116E075
:1025C000FA796D4B283253F83230002B0CD0FA795F
:1025D000694B283253F83220FB7967492833DB00F6
:1025E0000B445B6818469047FB790133FB71FB791C
:1025F000072BE5D9B2E0402010F084FD0346002B04
:102600000CBF00230123DBB2002B20D0402010F0B0
:102610009DFD0023FB7116E0FA79574B303253F8D9
:102620003230002B0CD0FA79534B303253F8322031
:10263000FB7951493033DB000B445B681846904707
:10264000FB790133FB71FB79072BE5D986E080200C
:1026500010F058FD0346002B0CBF00230123DBB212
:10266000002B20D0802010F071FD0023FB7116E0BC
:10267000FA79414B383253F83230002B0CD0FA79CA
:102680003D4B383253F83220FB793B493833DB007D
:102690000B445B6818469047FB790133FB71FB796B
:1026A000072BE5D95AE04FF4807010F02BFD03465C
:1026B000002B0CBF00230123DBB2002B21D0002311
:1026C000FB7116E0FA792C4B403253F83230002B74
:1026D0000CD0FA79284B403253F83220FB79264946
:1026E0004033DB000B445B6818469047FB790133AD
:1026F000FB71FB79072BE5D94FF4807010F026FDB4
:102700002CE04FF4007010F0FDFC0346002B0CBFD2
:1027100000230123DBB2002B20D04FF4007010F017
:1027200015FD0023FB7116E0FA79134B483253F87C
:102730003230002B0CD0FA790F4B483253F832204C
:10274000FB790D494833DB000B445B681846904722
:10275000FB790133FB71FB79072BE5D9074B1B682C
:10276000002B0CBF00230123DBB2002B01D0FEF7AE
:1027700051FD0837BD4680BD001300207861002060
:1027800080B582B000AF4FF4806010F0BBFC034610
:10279000002B0CBF00230123DBB2002B21D04FF410
:1027A000806010F0D3FC0023FB7116E0FA79864BB1
:1027B000503253F83230002B0CD0FA79824B503221
:1027C00053F83220FB7980495033DB000B445B68BF
:1027D00018469047FB790133FB71FB79072BE5D94C
:1027E000E4E04FF4006010F08DFC0346002B0CBFBA
:1027F00000230123DBB2002B21D04FF4006010F046
:10280000A5FC0023FB7116E0FA796F4B583253F8A0
:102810003230002B0CD0FA796B4B583253F83220FF
:10282000FB7969495833DB000B445B6818469047D5
:10283000FB790133FB71FB79072BE5D9B6E04FF447
:10284000805010F05FFC0346002B0CBF00230123D7
:10285000DBB2002B21D04FF4805010F077FC002326
:10286000FB7116E0FA79584B603253F83230002B86
:102870000CD0FA79544B603253F83220FB7952492C
:102880006033DB000B445B6818469047FB790133EB
:10289000FB71FB79072BE5D988E04FF4005010F06D
:1028A00031FC0346002B0CBF00230123DBB2002BBD
:1028B00021D04FF4005010F049FC0023FB7116E0CA
:1028C000FA79414B683253F83230002B0CD0FA7948
:1028D0003D4B683253F83220FB793B496833DB00CB
:1028E0000B445B6818469047FB790133FB71FB7919
:1028F000072BE5D95AE04FF4804010F003FC034663
:10290000002B0CBF00230123DBB2002B21D04FF49E
:10291000804010F01BFC0023FB7116E0FA792A4B73
:10292000703253F83230002B0CD0FA79264B7032CB
:1029300053F83220FB7924497033DB000B445B6889
:1029400018469047FB790133FB71FB79072BE5D9DA
:102950002CE04FF4004010F0D5FB0346002B0CBFD9
:1029600000230123DBB2002B20D04FF4004010F0F5
:10297000EDFB0023FB7116E0FA79134B783253F824
:102980003230002B0CD0FA790F4B783253F83220CA
:10299000FB790D497833DB000B445B6818469047A0
:1029A000FB790133FB71FB79072BE5D9074B1B68DA
:1029B000002B0CBF00230123DBB2002B01D0FEF75C
:1029C00029FC0837BD4680BD001300207861002037
:1029D00080B582B000AF1348202111F083FA0023A4
:1029E000FB710DE0FA79104B53F82230002B04D024
:1029F000FA790D4B53F822309847FB790133FB717C
:102A0000FB79072BEED9094B1B68002B0CBF002369
:102A10000123DBB2002B01D0FEF7FCFB00BF08371F
:102A2000BD4680BD00480040E012002078610020D3
:102A300080B500AF0920012110F054FE1748012194
:102A400010F09EFC164B1B681846012148F6A04268
:102A500000F09EFC134B1B6800204FF4FA711A46DD
:102A600000F010FD10484FF4165101F083F80F48A4
:102A70004FF4165101F07EF80D4B1B780D481946A6
:102A80000D4AFFF79BFA0D4800F0BAFD4FF4A06025
:102A900010F058FA00F014F880BD00BF00013000BB
:102AA0001000002018000020841700208817002044
:102AB000140000208C170020A12C00089017002083
:102AC00080B500AF034800F007FC034800F004FCA9
:102AD00080BD00BF781700207417002080B582B039
:102AE00000AF786039607B68012B33D13A684FF6CC
:102AF000FF739A422ED1194800F058FA184800F096
:102B000055FA184800F04CF81748012101F0CCF8AC
:102B10001648022101F0C8F81548002100F0A4FB76
:102B20001448012100F0A0FB1348002100F04AF8EE
:102B30001248012100F046F81148022101F008F87E
:102B40001048032101F004F80F48FFF71DFA0F4861
:102B500000F002FD0837BD4680BD00BF0017002011
:102B600004170020081700200C1700204017002031
:102B700074170020781700207C1700208017002091
:102B800084170020881700208C1700209017002041
:102B900080B500AF01204FF6FF71FFF79FFF80BDAA
:102BA00080B483B000AF78607B6800221A707B68C5
:102BB00000225A707B6818460C37BD465DF8047BCE
:102BC000704700BF80B582B000AF78600B46FB70E5
:102BD0007B68FA781A70786800F006F87B68184607
:102BE0000837BD4680BD00BF80B584B000AF7860B7
:102BF0007B681B781A46134B53F822301846012184
:102C000010F070FD7B681B780F4AD35CFB737B6808
:102C10001B780E4AD35CBB737B681B781A460C4B3F
:102C200033F81230BB817B681B781A46094B53F886
:102C3000222007F10C031046194610F095FA1037C0
:102C4000BD4680BDB4E1010824000020280000201A
:102C5000B0E101081C00002080B483B000AF7860B0
:102C60007B681B780C4AD35C002B06D07B681B78F2
:102C7000094A0021D154012308E07B681B78074AE8
:102C8000D35C002B01D0022300E0002318460C3750
:102C9000BD465DF8047B7047A8170020AC170020E4
:102CA00080B582B000AF164B1B78591C154B83FBC7
:102CB00001239A10CB17D21A13469B0013445B00D2
:102CC000CA1AD2B20E4B1A700D4B1B78092B13D1B6
:102CD0000023FB710DE0FA790B4B53F82230002BE7
:102CE00004D0FA79084B53F822309847FB79013326
:102CF000FB71FB79012BEED90837BD4680BD00BFC3
:102D0000B4170020676666662C00002080B500AF0F
:102D10002F4B1A782F4B1A702F4B1A782C4B1A7096
:102D20002E4B1A6804231046194610F0D9FA0346B0
:102D30001A46294B1A702A4B1B88002B0CD0284BA3
:102D40001B88013B9AB2264B1A80254B1B88002B0F
:102D500002D1244B01221A701F4B1A781C4B1B788E
:102D60009A4234D11A4B1A781A4B1B789A422ED1B8
:102D7000194B1A781C4B1B789A4228D0164B1A789C
:102D800000239A4206D1144B1A78174B1A70144B31
:102D900064221A80104B1B781A460023002B14BFA4
:102DA00000230123DBB29A4211D10B4B1A780E4B50
:102DB0001A700B4B1B88002B03D00C4B01221A708E
:102DC00002E0084B00221A70054B00221A8080BDD9
:102DD0009C170020A0170020981700201C0000203E
:102DE000B0170020AC170020A4170020A81700205F
:102DF00080B500AF304B5A78304B5A70304B5A7810
:102E00002D4B5A702F4B5A684FF480731046194659
:102E100010F066FA03461A46294B5A702A4B5B8813
:102E2000002B0CD0284B5B88013B9AB2264B5A8072
:102E3000254B5B88002B02D1244B01225A70204B7A
:102E40005A781D4B5B789A4234D11B4B5A781B4BF6
:102E50005B789A422ED11A4B5A781D4B5B789A4276
:102E600028D0174B5A7800239A4206D1144B5A782F
:102E7000174B5A70144B64225A80114B5B781A46D8
:102E80000023002B14BF00230123DBB29A4211D18F
:102E90000B4B5A780E4B5A700B4B5B88002B03D0B0
:102EA0000C4B01225A7002E0084B00225A70064B6C
:102EB00000225A8080BD00BF9C170020A017002070
:102EC000981700201C000020B0170020AC1700202D
:102ED000A4170020A817002080B483B000AF78604A
:102EE00039607B68012B4CD13A684FF6FF739A42E8
:102EF00047D10023002B14BF00230123DBB21A4665
:102F0000224B1A700023002B14BF00230123DBB2D5
:102F10001A461E4B5A700023002B14BF00230123B6
:102F2000DBB21A461A4B1A700023002B14BF002381
:102F30000123DBB21A46164B5A700023002B14BF34
:102F400000230123DBB21A46124B1A700023002B18
:102F500014BF00230123DBB21A460E4B5A70002324
:102F6000002B14BF00230123DBB21A460A4B1A7050
:102F70000023002B14BF00230123DBB21A46064BAB
:102F80005A700C37BD465DF8047B704798170020D7
:102F90009C170020A0170020A417002080B500AFC8
:102FA00001204FF6FF71FFF797FF80BD80B483B01B
:102FB00000AF78607B680122DA707B6818460C37B6
:102FC000BD465DF8047B704780B584B000AF786083
:102FD00039603B681A787B681A703B685A787B685E
:102FE0005A707B681B78062B03D87B685B780F2BA5
:102FF00001D900234AE07B681B781A46254B53F819
:1030000022301846012110F06DFB3B689B781C2B89
:1030100003D03B689B78182B03D10120012110F0CD
:1030200061FB3B689B78142B03D03B689B78102B8B
:1030300002D17B680022DA707B685B78012202FA99
:1030400003F39BB2BB813B689B78FB733B68DB78E7
:10305000012B06D0022B07D0002B08D10223BB7313
:1030600007E00123BB7304E00323BB7301E00023EB
:103070000CE07B681B781A46074B53F8222007F1B7
:103080000C031046194610F06FF80123184610374C
:10309000BD4680BDBCE101083400002080B582B08F
:1030A00000AF78607B68DB78002B11D07B681B78E1
:1030B0001A46124B53F822207B685B78012101FAF3
:1030C00003F39BB21046194610F00AF9034610E0CC
:1030D0007B681B781A46094B53F822207B685B7883
:1030E000012101FA03F39BB21046194610F012F9C0
:1030F000034618460837BD4680BD00BF3400002097
:1031000080B582B000AF78600B46FB707B68FA78C0
:103110009A700120012110F0E5FA7B681A787B682B
:103120005B781046194610F09BF97B689B787868AD
:103130001946012200F026F878680F210F2200F0CE
:103140003FF8012318460837BD4680BD80B582B0E0
:1031500000AF78607B689B7878681946012200F0A0
:1031600011F80837BD4680BD80B582B000AF7860E9
:103170007B689B7878681946002200F003F80837CE
:10318000BD4680BD80B584B000AF786013460A4666
:10319000FA70BB707B685B78012202FA03F3BB60B4
:1031A00000233B737B689B787B73BB78BB7307F111
:1031B000080318460FF038FF1037BD4680BD00BF2A
:1031C00080B584B000AF786013460A46FA70BB70D1
:1031D0007B685B780F2B38D801A252F823F000BF30
:1031E00021320008273200082D320008333200084F
:1031F000393200083F3200083F3200083F320008F1
:103200003F3200083F3200084532000845320008CE
:1032100045320008453200084532000845320008B2
:1032200006233B7312E007233B730FE008233B7335
:103230000CE009233B7309E00A233B7306E01723E4
:103240003B7303E028233B7300E000BFFB787B73F4
:10325000BB78BB730123FB7307F10C0318460FF017
:1032600083FE1037BD4680BD80B584B000AF786066
:103270000B46FB707B68FA781A70FA78114B53F89A
:1032800022301846012110F02DFAFB780E4AD35C4B
:10329000FB73FA780D4B33F81230BB81FB780C4A84
:1032A000D35CBB73FA780B4B53F8222007F10C0365
:1032B000104619460FF058FF7B6818461037BD4678
:1032C00080BD00BFDCE1010858000020D8E1010802
:1032D0005C0000205000002080B582B000AF786014
:1032E0007B681B781A46084B53F822207B681B78B2
:1032F0001946064B33F811301046194610F024F8E1
:103300000837BD4680BD00BF50000020D8E101084D
:1033100080B582B000AF78607B681B781A461A4B84
:1033200053F822207B681B781946184B33F811306C
:10333000104619460FF0EEFF0346002B10D07B68B5
:103340001B781A46104B53F822207B681B781946CD
:103350000E4B33F811301046194610F003F80FE009
:103360007B681B781A46084B53F822207B681B7831
:103370001946064B33F81130104619460FF0E4FF9A
:103380000837BD4680BD00BF50000020D8E10108CD
:1033900080B58CB000AF786013460A467A803B80D7
:1033A0007A68344B9A4203D1012387F82F3008E022
:1033B0007A68314B9A4203D1002387F82F3000E01E
:1033C00055E097F82F30002B01D0102300E0202388
:1033D0001846012110F0A4F97868012110F00EFCC4
:1033E00078680121012210F0D1FB7B8878681946AA
:1033F000012210F0EFFB3B887868194610F07AFC48
:103400007868002110F01AFC7868002110F036FC72
:103410007868002110F052FC7868012110F096FBCA
:1034200036233B730123FB730F237B730F23BB7383
:1034300007F10C0318460FF097FD07F1100318462B
:1034400010F09EF8BB69BB62BA6A0C4BA3FB021377
:103450009B09BB627B883A8802FB03F37B627A6A32
:10346000BB6AB2FBF3F39AB2054B1A8000BF303748
:10347000BD4680BD0010004000140040D34D6210D6
:10348000BE17002080B483B000AF0B463A600246FE
:10349000FA71BB80FB7983F00103DBB2002B07D00C
:1034A000114B4FF6FF721A80104B00221A6016E083
:1034B0000F4B1B88BA88B2FBF3F39BB29AB20A4B4C
:1034C0001A80094B1B889BB2094A128802FB03F33E
:1034D0009AB2084B1A80054B3A681A6000BF0C3745
:1034E000BD465DF8047B704760000020B8170020DF
:1034F000BE170020BC17002080B483B000AF7860F6
:103500000B467B807B8803F00303002B1AD17B885A
:10351000104AA2FB03125209642101FB02F29B1A1A
:103520009BB2002B0CD17B880A4AA2FB0312D20962
:103530004FF4C87101FB02F29B1A9BB2002B01D120
:10354000012300E0002318460C37BD465DF8047BDC
:10355000704700BF1F85EB5180B582B000AF786027
:103560007B6818460021082218F0EBFF7B6818469C
:103570000837BD4680BD00BF80B584B000AFF8609D
:10358000B9607A604FF0C050012110F0C9F80120F5
:103590000FF0A4FFBB681B68B3F5007F25D0B3F51F
:1035A000407F23D0B3F5807F21D101200FF0A6FF0B
:1035B00000BF412010F00EF90346012B0CBF002381
:1035C0000123DBB2002BF4D14FF480700FF0B6FF73
:1035D00001200FF0C5FF10F0ABF9BB685B6818461F
:1035E00010F07EF910F094F901E0FEE7FEE7FB68C9
:1035F00018467968082218F080FF1037BD4680BD54
:1036000080B586B000AF78604FF480733B6147F6B9
:10361000FF737B614FF4FA633B810123BB7201238B
:10362000FB720623FB7300233B7300237B73002391
:10363000BB7307F1100207F10803786811461A46B8
:10364000FFF79AFF1837BD4680BD00BF80B584B034
:1036500000AF78603960786800F01CF8F86078682E
:10366000F9683A6800F038F81037BD4680BD00BFF1
:1036700080B584B000AF786039607868396800F050
:103680000BF9F8607868F96800F012F81037BD4659
:1036900080BD00BF80B582B000AF786010F048F9FF
:1036A00010F0F2F8034618460837BD4680BD00BF4B
:1036B00080B582B000AF7860396010F029F910F061
:1036C000C3F8386810F0F6F810F0CEF810F020F9D2
:1036D0000837BD4680BD00BF80B58AB000AFF86036
:1036E000B9607A60FB689B791A46BB681344BB617A
:1036F000BA69664BA3FB02135B097B617A69634B72
:10370000A3FB02135B093B613A69614BA3FB021304
:103710001B097B62B9695D4BA3FB01235A09134660
:103720001B019B1A9B00CA1AD2B27B689A717969F5
:10373000564BA3FB01235A0913461B019B1A9B00FE
:10374000CA1AD2B27B685A713969514BA3FB012363
:103750001A0913465B001344DB00CA1AD2B27B6815
:103760001A71FB68DB791A467B6AD118494BA1FBB9
:103770000323C81A400803449A081346DB009B1A27
:10378000CA1AD2B27B68DA71FB68DB7887F820301E
:10379000FB689B7887F82130FB681B887B840023BB
:1037A000FB7797F82130012B17D097F82130032BA6
:1037B00013D097F82130052B0FD097F82130072B25
:1037C0000BD097F82130082B07D097F821300A2B1F
:1037D00003D097F821300C2B02D11F23BB7713E0C5
:1037E00097F82130022B0DD17B8CF8681946FFF732
:1037F00083FE0346002B02D01D23BB7704E01C236D
:10380000BB7701E01E23BB7797F820207B6A1A4420
:10381000BB7F9A420ED90123FB77012387F8203022
:1038200097F82020BB7FD31A1A467B6A1344013BCA
:103830007B6208E07B6ADAB297F82030134487F89D
:1038400020300023FB77FB7F002B0FD097F821302F
:10385000013387F8213097F821300C2B07D9012349
:1038600087F821307B8C01337B8400E000E096E711
:103870007B6897F82020DA707B6897F821209A708F
:103880007B687A8C1A802837BD4680BD89888888F5
:10389000ABAAAAAA2549922480B586B000AF786069
:1038A00039603B681A887B681B889A4201D20023E2
:1038B00048E13B681A887B681B889A423FD13B6885
:1038C0009A787B689B789A4201D200233AE13B6860
:1038D0009A787B689B789A4231D13B68DA787B682A
:1038E000DB789A4201D200232CE13B68DA787B68CE
:1038F000DB789A4223D13B681A797B681B799A421C
:1039000001D200231EE13B681A797B681B799A4239
:1039100015D13B685A797B685B799A4201D20023C2
:1039200010E13B685A797B685B799A4207D13B6822
:103930009A797B689B799A4201D2002302E10023A5
:103940007B610023FB743B689A797B689B799A4280
:103950000CD20123FB743B689B7903F13C027B682A
:103960009B79D31A7A6913447B610AE03B689B799F
:103970001A467B689B79D31A7A6913447B610023CA
:10398000FB743B685B791A467B685B791946FB7C64
:10399000002B01D0012300E000230B449A4218DAE7
:1039A0003B685B7903F13C027B685B791946FB7CE1
:1039B000002B01D0012300E000230B44D21A134650
:1039C0001B019B1A9B007A6913447B610123FB74E2
:1039D00016E03B685B791A467B685B791946FB7C8D
:1039E000002B01D0012300E000230B44D21A134620
:1039F0001B019B1A9B007A6913447B610023FB74B3
:103A00003B681B791A467B681B791946FB7C002BA7
:103A100001D0012300E000230B449A4218DA3B68EE
:103A20001B7903F118027B681B791946FB7C002B7C
:103A300001D0012300E000230B44D31A4FF461624C
:103A400002FB03F37A6913447B610123FB7416E0E4
:103A50003B681B791A467B681B791946FB7C002B57
:103A600001D0012300E000230B44D31A4FF461621C
:103A700002FB03F37A6913447B610023FB74FB7C34
:103A8000002B01D0012300E00023FB607B689B78C2
:103A90007B727B681B887B8139E07B7A012B11D09C
:103AA0007B7A032B0ED07B7A052B0BD07B7A072BEE
:103AB00008D07B7A082B05D07B7A0A2B02D07B7A40
:103AC0000C2B03D1FB681F33FB6015E07B7A022BC4
:103AD0000FD17B8978681946FFF70EFD0346002B4E
:103AE00003D0FB681D33FB6006E0FB681C33FB6002
:103AF00002E0FB681E33FB607B7A01337B727B7ACA
:103B00000C2B04D901237B727B8901337B813B68B9
:103B10009B787A7A9A42C0D13B681B887A899A420C
:103B2000BBD13B68DB781A46FB681A447B68DB78BC
:103B3000D31AFB60FB68054A02FB03F37A6913445E
:103B40007B617B6918461837BD4680BD80510100F6
:103B500080B483B000AF78600B46FB70FB78013B0C
:103B6000DAB27B681A707B6818460C37BD465DF880
:103B7000047B704780B588B000AF786039607B689F
:103B80001B78042B7CD87B681B781A463E4B53F875
:103B90002230184601210FF0A5FD7B681B781A46DC
:103BA0003A4B53F82230184601210FF09BFD7B68F9
:103BB0001B78002B0AD17B681B781A46344B53F8CC
:103BC0002230184601210FF08DFD09E07B681B783B
:103BD0001A462F4B53F82230184601210FF0A0FD52
:103BE0007B681B781A462B4B33F81230BB830323B8
:103BF000BB771823FB777B681B781A46264B53F854
:103C0000222007F11C03104619460FF0ADFA7B681D
:103C10001B781A46214B33F81230BB830323BB7742
:103C20000423FB777B681B781A461D4B53F8222030
:103C300007F11C03104619460FF096FA0C23FB827D
:103C40000023BB823B68FB6000237B8200233B8216
:103C500000233B837B681B781A46124B53F82220C3
:103C600007F10C031046194610F062F87B681B78C8
:103C70001A460C4B53F822301846012110F012F965
:103C80002037BD4680BD00BFFCE1010810E20108FD
:103C900024E20108E4E1010864000020F0E10108E9
:103CA000780000208C00002080B483B000AF7860E2
:103CB0000B467B807B88013B9AB27B681A807B68CD
:103CC00000229A847B68002283F826207B6893F880
:103CD0002630012202FA03F3DAB27B6883F8272048
:103CE0007B68002283F830207B6818460C37BD467D
:103CF0005DF8047B704700BF80B584B000AF78608A
:103D00007B681B88414AD35CFB737B681B88194620
:103D1000FA7B3F4B49000A4453F8223018460121F0
:103D20000FF0E0FC7B681B881946FA7B394B490091
:103D30000A4453F82230184601210FF0D3FC7B6867
:103D40001B881946FA7B344B49000A4453F8223049
:103D5000184601210FF0C6FC012001210FF0C2FC22
:103D60001823FB720323BB727B681B881946FA7BFE
:103D70002A4B49000A4433F812303B817B681B8888
:103D80001946FA7B264B49000A4453F8222007F1D2
:103D90000803104619460FF0E7F97B681B8819469F
:103DA000FA7B204B49000A4433F812303B817B6890
:103DB0001B881946FA7B1C4B49000A4453F8222001
:103DC00007F10803104619460FF0CEF90423FB72E1
:103DD0007B681B881946FA7B144B49000A4433F868
:103DE00012303B817B681B881946FA7B104B4900D7
:103DF0000A4453F8222007F10803104619460FF031
:103E0000B3F900BF1037BD4680BD00BF38E20108DE
:103E1000C8000020E8000020080100203CE2010862
:103E2000B80000204CE20108F800002044E201083C
:103E3000D800002080B588B000AF786039607B681A
:103E40001B881A46274B53F822307A68128811468D
:103E5000254A52F821201046012198473B681B88CB
:103E60003B833B685B88BB823B689B887B823B686B
:103E7000DB88BB833B681B893B823B685B89BB81DA
:103E80003B689B897B833B68DB89FB813B681B8AA2
:103E9000FB827B681B881A46144B53F8222007F1DB
:103EA0000C03104619460FF095FD7B681B881A46D7
:103EB0000E4B53F82230184601210FF0CFFD3B681E
:103EC000DB89B3F5827F08D13B685B89002B00D08A
:103ED00003E07868FFF710FF00BF00231846203783
:103EE000BD4680BDB0000020A8000020A00000203A
:103EF00080B483B000AF78600B46FB70FB78032B77
:103F000001D901230EE07B68FA7883F826207B68CC
:103F100093F82630012202FA03F3DAB27B6883F8C1
:103F20002720002318460C37BD465DF8047B7047F8
:103F300080B584B000AF786039603B681B7B022B92
:103F400001D9012344E03B681B7BFB73FB7B3A6890
:103F5000126879689B000B445A60FA7B3B68998829
:103F60007B68083223F81210FA7B3B6899687B68FB
:103F7000063243F82210FA7B7B68063253F822306F
:103F8000184601210FF0AEFB1023FB72FA7B7B6811
:103F9000083233F812303B810123BB72FB7B7A6815
:103FA0009B0013445A6807F10803104619460FF0A6
:103FB000DBF87B689B8C9AB2FB7B0133012101FA11
:103FC00003F39BB213439BB29AB27B689A8400239B
:103FD00018461037BD4680BD80B582B000AF78600E
:103FE00013460A46FA70BB707B6893F82730BA789C
:103FF0009A4201D3012315E0BB787A681344FA781A
:1040000083F82820FB78002B0BD17B68BA7883F8E3
:1040100032207B68002283F830207868002100F08D
:10402000AFF8002318460837BD4680BD80B582B082
:1040300000AF78600B46FB707B6893F83030002B44
:1040400001D0022311E07B68FA7883F83020786889
:1040500000F010F80346002B0CBF00230123DBB255
:10406000002B01D0032300E0002318460837BD468B
:1040700080BD00BF80B485B000AF78600023BB7303
:104080000023FB730FE0FB7B7A68134493F828202E
:104090007B6893F830309A4202D10123BB7305E06C
:1040A000FB7B0133FB73FB7B072BECD9BB7B002B2A
:1040B00005D07B68FA7B83F83120002300E00323DE
:1040C00018461437BD465DF8047B704780B584B050
:1040D00000AF78600B46FB707B689B8C1A464FF6EE
:1040E000FE7313407A6892F826200132012101FA0A
:1040F00002F2023A934201D001233CE07B6893F83C
:104100003030FA789A4200D0FEE77B6893F831307D
:10411000FB730023BB7327E0FB7B03F00103002B41
:104120000ED1BB7B7A689B0013445A68B97B7B68CD
:10413000083133F81130104619460FF013F90DE02D
:10414000BB7B7A689B0013445A68B97B7B68083153
:1041500033F81130104619460FF0F6F8FB7B5B1070
:10416000FB73BB7B0133BB737B6893F82630BA7B50
:104170009A42D1D3002318461037BD4680BD00BFF8
:1041800080B584B000AF78600B46FB707B689B8C79
:104190001A464FF6FE7313407A6892F826200132D1
:1041A000012101FA02F2023A934201D001233CE0DC
:1041B0007B6893F83030FA789A4200D0FEE77B684B
:1041C00093F83230FB730023BB7327E0FB7B03F0D3
:1041D0000103002B0ED1BB7B7A689B0013445A6805
:1041E000B97B7B68083133F81130104619460FF05F
:1041F000B9F80DE0BB7B7A689B0013445A68B97B21
:104200007B68083133F81130104619460FF09CF8DE
:10421000FB7B5B10FB73BB7B0133BB737B6893F849
:104220002630BA7B9A42D1D3002318461037BD46B8
:1042300080BD00BF80B582B000AF786013460A46EB
:10424000FA703B807B6893F83030FA789A4200D05D
:10425000FEE700BF7B681B881A461D4B53F82230CF
:10426000184602210FF056FC0346002B14BF002312
:104270000123DBB2002BEDD17B681B881A46144B5F
:1042800053F822203B88104619460FF007FC00BF68
:104290007B681B881A460E4B53F8223018460121C2
:1042A0000FF038FC0346002B14BF00230123DBB2C0
:1042B000002BEDD17B681B881A46054B53F8223042
:1042C00018460FF0F9FB034618460837BD4680BD77
:1042D000A000002080B584B000AF78607B681B88A8
:1042E0000E4AD35CFB737B681B881946FA7B0C4B28
:1042F00049000A4453F822207B681B881846F97B42
:10430000084B4000014433F81130104619460EF0B6
:10431000E7FF034618461037BD4680BD38E2010866
:10432000D800002044E2010880B483B000AF786078
:104330000B46FB700A4A7B685B0113441B78002B19
:1043400001D1002306E0064A7B685B011344FA783A
:104350001A71012318460C37BD465DF8047B70477F
:10436000AC62002080B582B000AF0023FB80FB88E8
:1043700043F00103FB8002F015FDFB88002B2CD0DD
:10438000FB88184614F03AFA14F080FAFB880020F3
:10439000194602F011FD386038680221FFF7C4FFAA
:1043A0000346002B03D138680321FFF7BDFF3868AF
:1043B00003F082F90346002B03D13868012103F092
:1043C0009DF9386803F002FA0346002B08DC3868D0
:1043D0004AF6CD3103F022FA02E04FF0FF333B60A2
:1043E0000837BD4680BD00BF80B500AF15F0B8FAF4
:1043F000FDF706FDFFF7B6FF0DF0E8FF15F07EF8BC
:1044000080BD00BF80B584B000AF786039607B6844
:104410001C331846FCF7FAFAF860FB68B3F1FF3F6B
:104420000BD07B689A6AFB68DB0013443A6892E819
:10443000030083E80300012300E00023184610373F
:10444000BD4680BD80B588B000AF786013460A468F
:104450007A807B70FCF76CFE0346002B07D0B7F91F
:1044600002307868194600F0AFF8034682E0434B0B
:104470001B889BB2B7F902201BB29A4204D178681C
:1044800000F082F8034675E0FCF726FEB7F902203B
:104490003B4B53F82230BB61384B1B889AB27B6888
:1044A0001A80BB69002B04D1FCF726FE4FF0FF33C6
:1044B00060E0BB699B88032B4AD0BB699B6A002BD9
:1044C00012D0B8697968FFF79DFF0346002B0BD027
:1044D000FCF712FE2B4B1B689B889BB2052B01D16E
:1044E000FCF798FE012345E07B7883F00103DBB203
:1044F000002B03D0FCF700FE00233BE0214B1B68A0
:104500001B899BB2FB601F4B1B683B610023BB6098
:10451000BB6903F1180207F1080310461946FCF7BE
:104520006BFD184B1B687A685A61164B1B689B8899
:104530009BB2052B02D10523FB6101E00423FB6143
:10454000104B1A68FB6910461946FBF7E9FF0CE0AF
:10455000BB695B697B617B697A6892E8030083E8E9
:104560000300B8690721FBF7DBFFFCF7C5FDFCF78B
:1045700051FE012318462037BD4680BD700B002038
:10458000C0610020BC61002080B584B000AF7860BD
:10459000FCF7A2FDF8600A4B1B889AB27B681A8070
:1045A000084B1B6818467968FFF72CFFB860F8685D
:1045B000FCF7B0FDBB6818461037BD4680BD00BF94
:1045C000700B0020BC61002080B584B000AF786023
:1045D0000B467B80B7F90220154B53F82230FB6065
:1045E000FB68002B02D14FF0FF331DE0FB689B8876
:1045F000032B14D17B687A881A80FB685B69BB60E7
:10460000BB687A6892E8030083E80300F868072132
:10461000FBF786FF074B01221A60012304E0F868CC
:104620007968FFF7EFFE034618461037BD4680BD98
:10463000C06100207861002080B586B000AFF860CE
:10464000B9601346FB80FCF747FD0D4B1B889BB2FE
:104650001AB20C4B53F822307B6178690521FBF7C5
:104660005FFF7B69BA685A61B7F90630F868194686
:104670000122FFF7E7FE034618461837BD4680BD06
:10468000700B0020C061002080B586B000AF78605C
:104690003960FCF721FD03467B617B681B881AB2F9
:1046A000164B53F822303B613B69002B02D14FF08F
:1046B000FF331EE03B699B88052B06D07B691846BB
:1046C000FCF728FD4FF0FF3313E03B695B69FB60AB
:1046D000FB683A6892E8030083E803003869072121
:1046E000FBF71EFF7B691846FCF714FDFCF792FDF3
:1046F000012318461837BD4680BD00BFC0610020A9
:1047000080B582B000AF78607868012100F006F8CB
:10471000034618460837BD4680BD00BF90B589B036
:1047200000AF78603960FCF7D7FC3B4B1B889BB22D
:104730001AB23A4B53F82230BB614FF0FF33FB61A2
:10474000BB699B6A002B05D0BB691C331846FCF77C
:1047500041F9F8613B68002B08D1FB69B3F1FF3FD9
:1047600004D1FCF7C9FC4FF0FF3351E0FB69002B8B
:104770000ADBBB699A6AFB69DB001A447B6892E832
:10478000030083E8030002E0BB697A685A61BB69F1
:1047900018331846FCF71AFC78617B69002B0FD19F
:1047A000FB69002B08DAB8690321FBF7B9FEFCF7B7
:1047B000A3FCFCF72FFD01E0FCF79EFC012327E0A2
:1047C0007B699B683B61FB69002B0ADBBB699C6AC8
:1047D000BB691C331846FCF719F90346DB00234478
:1047E0007B603B695B69FB607B68FA6892E8030069
:1047F00083E803003B699B88052B06D03B690022B8
:104800005A6138690721FBF78BFEFCF775FC012321
:1048100018462437BD4690BD700B0020C0610020B3
:1048200080B584B000AF786039603B68002B15D04C
:104830003B685A1E3B681340002B0FD10A4B1B6884
:10484000FB60FB687A689A62FB6803F11C023B68B4
:1048500010461946FCF79AF8002301E04FF0FF33A9
:1048600018461037BD4680BDBC61002080B483B0BF
:1048700000AF03463960FB7197F90730002B0BDA64
:104880000D49FB7903F00F03043B3A68D2B21201E1
:10489000D2B20B441A7609E0084997F907303A6812
:1048A000D2B21201D2B20B4483F800230C37BD46BA
:1048B0005DF8047B704700BF00ED00E000E100E020
:1048C00080B500AF6FF00100FF21FFF7CFFF034B72
:1048D0004FF000629A6000F003F880BD00ED00E048
:1048E00080B400AF404B404A126842F001021A60A7
:1048F0003D4A3D4B59683D4B0B4053603A4A3A4B59
:104900001B6823F0847323F480331360364B364ADC
:10491000126822F480221A60334B334A526822F420
:10492000FE025A60304B4FF41F029A602E4B2E4A03
:10493000126842F480321A6000BF2B4B1B6803F4EC
:104940000033002BF9D02A4B294A126842F010029A
:104950001A60274B264A126822F003021A60244B81
:10496000234A126842F002021A601F4B1E4A526824
:104970005A601D4B1C4A52685A601B4B1A4A5268B7
:1049800042F480625A60184B174A526822F47C1233
:104990005A60154B144A526842F4E8125A60124B9E
:1049A000114A126842F080721A6000BF0E4B1B68F9
:1049B00003F00073002BF9D00B4B0B4A526822F026
:1049C00003025A60084B084A526842F002025A60D9
:1049D00000BF054B5B6803F00C03082BF9D1BD4603
:1049E0005DF8047B704700BF001002400000FFF03C
:1049F0000020024080B584B004AF094B009300232F
:104A00000193084B029308484FF4206107220823C2
:104A1000FBF7B8FE03461A46044B1A80BD4680BD1C
:104A2000314A000854E20108C0170020C0210020CC
:104A300080B588B002AF78600A4B1B881BB218465D
:104A4000002102F04DFF07F10803074A00921846C3
:104A500006498022064B05F0FDFD07F108031846C4
:104A600005F0C0FDC40B0020A14A0008C8E30108FE
:104A7000754A000880B582B000AF0023FB71074B78
:104A80001B881AB2FB1D10461946012202F03AFF9C
:104A9000FB7918460837BD4680BD00BFC40B002017
:104AA00080B582B000AF7860294B1B689B689A681C
:104AB000013A9A609B68002B34DA254B1B689B688F
:104AC0009A68234B1B689B689B699A421FDB204BAB
:104AD0001B689B681B687A68D2B21A701C4B1B68F3
:104AE0009B681B681B780A2B06D0194B1B689B68B8
:104AF0001A6801321A6022E0154B1A68144B1B68C1
:104B00009B6810460A211A4619F03AF817E0104B34
:104B10001A680F4B1B689B68104679681A4619F093
:104B20002FF80CE00A4B1B689B681B687A68D2B2AE
:104B30001A70074B1B689B681A6801321A60044B95
:104B40001B689B68184617F0A5FB0837BD4680BD5B
:104B5000600200202DE9F041A2B00AAF7860396010
:104B60000023FB657B68012B09D107F14C03184634
:104B70005C4917F03CFF07F14C03FB6526E001237D
:104B8000BB65BA6D7B689A4220DABB6D9B003A68C0
:104B900013441B681B782D2B11D1BB6D9B003A6809
:104BA00013441B6801331B78682B04D14E484F49CE
:104BB00017F068FD91E04E4817F064FD8DE0BB6D85
:104BC0009B003A6813441B68FB6500BF07F10C03A8
:104BD0001846F96D11F03AFF034687F8573097F8F9
:104BE0005730002B05D097F85730184600F082FB5D
:104BF00073E007F10C0207F134031046194611F077
:104C0000CBFF034687F8573097F85730002B05D075
:104C100097F85730184600F06DFB5EE097F83D308E
:104C2000002B06D100BF07F10C03184611F08AFFD4
:104C300053E0388F07F1320107F1310207F13003F9
:104C400000F00EFC788F07F12F0107F12E0207F11B
:104C50002D0300F027FC97F83C3003F01003002BE5
:104C600001D0642200E02D2297F83C3003F00103CC
:104C7000002B01D02D2300E0772397F83C1001F0A2
:104C80000401002901D02D2100E07321D7F83480E0
:104C9000788E844697F83100864697F830000646AD
:104CA00097F82F00054697F82E00044697F82D0038
:104CB0000091CDF80480CDF808C0CDF80CE0049642
:104CC00005950694079007F13401093108910948C8
:104CD0001146722217F0D6FC8BE76037BD46BDE85F
:104CE000F08100BF98E401089CE40108ECE60108AB
:104CF000A0E4010864E7010880B5ADF5886D00AF58
:104D00003B1D18603B4619600023C7F83C343B1D2F
:104D10001B68012B03D1394817F0B4FC69E001236B
:104D2000C7F838343B1DD7F838241B689A4227DA75
:104D3000D7F838349B003A46126813441B681B7836
:104D40002D2B13D1D7F838349B003A461268134400
:104D50001B6801331B78682B04D12948294917F0B7
:104D600091FC46E0284817F08DFC42E0D7F8383433
:104D70009B003A46126813441B68C7F83C3400BFD6
:104D800007F503731846D7F83C14012210F08AFF88
:104D9000034687F8373497F83734002B05D097F857
:104DA0003734184600F0A6FA23E00BE007F10C03B5
:104DB0001348194617F066FC144B1B689B6818468D
:104DC00017F068FA07F10C0207F5037310464FF469
:104DD00000711A4612F0E8F90346002B0CBF0023BD
:104DE0000123DBB2002BE1D107F50373184611F064
:104DF000B7FC07F58867BD4680BD00BFB8E4010871
:104E00009CE4010894E70108A0E401086002002086
:104E100080B5ADF5167D00AF3B1D18603B461960AF
:104E20003B1D1B68012B03D1424817F02BFC7DE092
:104E30000123C7F854323B1DD7F854221B689A420D
:104E400074DAD7F854329B003A46126813441B6850
:104E50001B782D2B13D1D7F854329B003A46126899
:104E600013441B6801331B78682B04D13248334943
:104E700017F008FC5AE0324817F004FC56E0D7F867
:104E800054329B003A46126813441B6807F10C0227
:104E900010461946102210F005FF034687F85332DA
:104EA00097F85332002B05D097F85332184600F08C
:104EB00021FA3BE007F10C03184611F051FC0346C0
:104EC00087F8533297F85332002B05D097F85332B6
:104ED000184600F00FFA29E013F08CFAC7F84C02DC
:104EE000D7F84C321B0C9BB2A7F83832D7F84C32AB
:104EF0009BB2A7F83A32D7F854329B003A46126870
:104F000013441A6807F50D731046194612F0DCF8C1
:104F1000034687F8533297F85332002B05D097F8A1
:104F20005332184600F0E6F900E000BF07F51677A7
:104F3000BD4680BDB8E401089CE40108F8E701081B
:104F4000A0E4010890B5CBB000AF3B1D18603B4614
:104F50001960002387F82331012387F822313B1D94
:104F60001B68012B03D1594817F08CFBAAE00123E1
:104F7000C7F824319FE0D7F824319B003A461268E5
:104F800013441B681B782D2B26D1D7F824319B00A6
:104F90003A46126813441B6801331B78682B02D011
:104FA000722B0AD010E04A484A494FF4807217F039
:104FB00069FB002387F822310DE0012387F82331B4
:104FC000012387F8223106E0434817F05BFB0023FA
:104FD00087F8223100BF60E0D7F824319B003A46C1
:104FE000126813441A6807F584731046194611F0C5
:104FF0001DFE97F8233183F00103DBB2002B05D1AE
:1050000097F8103103F01003002B16D1D7F8243194
:105010009B003A46126813441B68184611F048FE7C
:10502000034687F8213197F82131002B04D097F8F7
:105030002131184600F05EF92CE0D7F824319B00AE
:105040003A46126813441C68D7F824319B003A464C
:10505000126813441B68184617F0D1FC034607F189
:105060000802104621461A4617F047FAD7F82431AD
:105070009B003A46126813441B68184617F0BFFCA1
:10508000034607F108020021D15407F1080318462E
:1050900000F028FA002387F8223197F8223183F0B4
:1050A0000103DBB2002B01D000BF0BE0D7F82431A5
:1050B0000133C7F824313B1DD7F824211B689A42DD
:1050C000FFF659AF07F59677BD4690BDE4E40108B9
:1050D00014E5010844E80108A0E4010880B586B0A1
:1050E00000AF786039607B68012B03D1244817F04A
:1050F000C9FA42E001233B613BE03B699B003A680F
:1051000013441B681B782D2B16D13B699B003A6812
:1051100013441B6801331B78682B06D119481A49C0
:1051200017F0B0FA0023FB7505E0184817F0AAFA4B
:105130000023FB7500BF12E03B699B003A681344F3
:105140001B68184611F088FE0346FB73FB7B002B9F
:1051500005D0FB7B184600F0CDF80023FB75FB7DE6
:1051600083F00103DBB2002B00D006E03B69013382
:105170003B613A697B689A42BFDB1837BD4680BD08
:105180001CE501089CE4010804E90108A0E4010809
:1051900080B586B000AF786039607B68012B00D1A4
:1051A00042E001233B613BE03B699B003A681344CA
:1051B0001B681B782D2B16D13B699B003A68134462
:1051C0001B6801331B78682B06D11948194917F061
:1051D00059FA0023FB7505E0174817F053FA00232E
:1051E000FB7500BF12E03B699B003A6813441B68E3
:1051F000184611F0E3FA0346FB73FB7B002B05D046
:10520000FB7B184600F076F80023FB75FB7D83F0EE
:105210000103DBB2002B00D006E03B6901333B61A8
:105220003A697B689A42BFDB1837BD4680BD00BF34
:105230009CE401084CE90108A0E4010880B5C4B071
:1052400000AF3B1D18603B4619600123C7F80C31C5
:1052500024E0D7F80C319B003A46126813441B68CF
:105260001B782D2B15D1D7F80C319B003A461268CC
:1052700013441B6801331B78682B06D119481A495F
:105280004FF4807217F0FEF928E0184817F0FAF989
:1052900024E0D7F80C310133C7F80C313B1DD7F8A7
:1052A0000C211B689A42D4DB07F1080318464FF41F
:1052B000807111F0D7FA034687F80B3197F80B315C
:1052C000002B05D097F80B31184600F013F805E0D5
:1052D00007F108030648194617F0D4F907F588774F
:1052E000BD4680BD14E5010890E90108A0E401086D
:1052F00048E5010880B582B000AF0346FB71FB7939
:10530000132B7BD801A252F823F000BF5D53000895
:10531000655300086D530008755300087D5300085D
:10532000855300088D530008955300089D530008CD
:10533000A5530008AD530008B5530008BD5300083D
:10534000C5530008CD530008D5530008DD530008AD
:10535000E5530008ED530008F55300082B4817F0FB
:1053600091F94FE02A4817F08DF94BE0294817F0E2
:1053700089F947E0284817F085F943E0274817F0F6
:1053800081F93FE0264817F07DF93BE0254817F00A
:1053900079F937E0244817F075F933E0234817F01E
:1053A00071F92FE0224817F06DF92BE0214817F032
:1053B00069F927E0204817F065F923E01F4817F046
:1053C00061F91FE01E4817F05DF91BE01D4817F05A
:1053D00059F917E01C4817F055F913E01B4817F06E
:1053E00051F90FE01A4817F04DF90BE0194817F082
:1053F00049F907E0184817F045F903E0174817F096
:1054000041F900BF0837BD4680BD00BF4CE501082B
:1054100054E5010864E5010870E5010880E501082C
:105420008CE5010898E50108ACE50108B8E501083C
:10543000C4E50108D8E50108ECE5010800E601082B
:1054400010E6010824E6010838E6010844E60108F0
:1054500050E6010864E601087CE6010894E60108CC
:1054600080B485B000AFB9607A603B600346FB81D1
:10547000FB895B129BB203F2BC739AB2BB681A80C1
:10548000FB89DBB25B11DAB27B681A70FB89DBB295
:1054900003F01F03DAB23B681A701437BD465DF89B
:1054A000047B704780B485B000AFB9607A603B6020
:1054B0000346FB81FB89DB12DAB2BB681A70FB89F9
:1054C000C3F30A035B11DAB27B681A70FB89DBB2A3
:1054D00003F01F03DAB23B681A701437BD465DF85B
:1054E000047B704780B592B000AF786007F1080385
:1054F0001846796811F0AAFA034687F8473097F8FA
:105500004730002B09D04648796817F0BBF897F868
:1055100047301846FFF7EEFE7EE0786817F06FFA26
:1055200003463B6407F1080207F1280310461946B9
:1055300011F032FB034687F8473097F84730002BCD
:1055400008D03848796817F09DF897F84730184622
:10555000FFF7D0FE97F83130002B0DD100BF07F1D7
:105560000803184611F0EEFA034687F8473097F81B
:105570004730002B3DD033E097F831302E2B01D14E
:1055800000BFCFE73B6C7A681A4407F12803093360
:10559000104625491A4617F061F997F8303003F0A4
:1055A0001003002B03D07868FFF79CFF12E07868A7
:1055B00011F07EFB034687F8473097F84730002B01
:1055C00008D01A48796817F05DF897F84730184600
:1055D000FFF790FE3B6C7A68134400221A70A1E733
:1055E0001348796817F04EF897F847301846FFF7D8
:1055F00081FE786811F05CFB034687F8473097F826
:105600004730002B08D00948796817F03BF897F825
:1056100047301846FFF76EFE4837BD4680BD00BFD5
:10562000A8E60108B8E60108C8E60108CCE60108CA
:10563000DCE60108F0B5ADF54D7D06AF3B1D186009
:105640003B4619603B1D1B68012B35D107F1AC03AC
:105650001846C449012210F025FB034687F815338C
:1056600097F81533002B09D0BF48BE4917F00AF848
:1056700097F815331846FFF73DFEB7E205E007F14E
:105680000C03BA48194616F0FDFF07F10C0207F1AA
:10569000AC03104620211A4611F086FD0346002B6C
:1056A0000CBF00230123DBB2002BE8D107F1AC03D0
:1056B000184611F055F899E207F53E731846002197
:1056C000102216F03EFF0023C7F8F432302387F88B
:1056D000F3320023C7F8EC3207F1AC031846A149B6
:1056E000112210F0DFFA034687F8153397F81533C7
:1056F000002B05D097F815331846FFF7FBFD75E230
:1057000007F1AC0107F12C0207F53A730846114680
:10571000802210F043FC034687F8153397F81533C1
:10572000002B0BD0D7F8E8329148194616F0AAFFA3
:1057300097F815331846FFF7DDFD57E207F12C0106
:1057400007F53E7303F10C0207F53E73083307F5C6
:105750003E700430009007F53E70019007F53D70F3
:10576000029007F2F320039007F53B70049008467F
:10577000804917F097F807F1AC03184610F0F0FFD6
:105780000123A7F8163397E1B7F816339B003A4682
:10579000126813441B681B782D2B40F08881B7F8E2
:1057A00016339B003A46126813441B6801331B787A
:1057B000633B152B00F27A8101A252F823F000BF5F
:1057C0003F590008AD5A0008AD5A0008AD5A00080C
:1057D000AD5A0008A35A0008AD5A0008AD5A000897
:1057E000AD5A0008AD5A0008AD5A00087D580008AF
:1057F000AD5A000819580008AD5A0008AD5A000803
:10580000AF590008D9580008AD5A0008AD5A000831
:10581000AD5A0008CD590008B7F816335A1C3B1D85
:105820001B689A420BDBB7F816339B003A461268A6
:1058300013441B685048194616F024FFD6E1B7F808
:1058400016330133A7F81633B7F816339B003A46E0
:1058500012681344196807F53E7303F10C0207F54B
:105860003E73083307F53E700430009007F53E7034
:1058700001900846414917F015F818E1B7F81633BA
:105880005A1C3B1D1B689A420BDBB7F816339B0072
:105890003A46126813441B683748194616F0F2FE60
:1058A000A4E1B7F816330133A7F81633B7F8163367
:1058B0009B003A46126813441B68184616F038FCE1
:1058C0000346C7F8F432D7F8F432002B03D12C4842
:1058D00016F0D8FE8AE1EAE0B7F816335A1C3B1DF1
:1058E0001B689A420BDBB7F816339B003A461268E6
:1058F00013441B682048194616F0C4FE76E1B7F839
:1059000016330133A7F81633B7F816339B003A461F
:10591000126813441B681B7887F8F33297F8F33248
:10592000722B0BD097F8F3326E2B07D097F8F33227
:10593000682B03D0134816F0A5FE57E1B7E0B7F87F
:1059400016335A1C3B1D1B689A421DDBB7F81633F1
:105950009B003A46126813441B680748194616F024
:1059600091FE43E12CED010804EA010828EA010850
:105970002CEA010838ED010858EA01081CED01087D
:1059800080EA0108A4EA0108B7F816330133A7F842
:105990001633B7F816339B003A46126813441B6857
:1059A000184616F0C5FB0346C7F8EC327FE001232A
:1059B000A7F8E2328F4B1B681B8807F538721BB2C1
:1059C000104619460022FEF73DFD0FE1B7F81633E9
:1059D0009A1C3B1D1B689A420BDBB7F816339B00E1
:1059E0003A46126813441B688348194616F04AFE6B
:1059F000FCE0B7F8163301339B003A4612681344B3
:105A00001B6818460021102217F0F4F80346C7F867
:105A10001033B7F8163302339B003A46126813442A
:105A20001B68184616F084FB0346A7F80E330623BE
:105A300087F8D43207F5357301330020194600F09A
:105A4000E5FE07F535730333D7F81003194600F068
:105A5000F3FEB7F80E2307F53573073310461946E2
:105A600000F0D4FE654B196897F8D432033307F57C
:105A70003572084611461A4600F0AAFD0023A7F821
:105A8000E2325E4B1B68C7F8E4325A4B1B681B8836
:105A900007F538721BB2104619460022FEF7D2FCF9
:105AA000A4E05748574916F0EDFD9FE000BFB7F856
:105AB00016330133A7F81633B7F816233B1D1B68BE
:105AC0009A42FFF661AE07F1AC0318464E490A222E
:105AD00010F0E8F8034687F8153397F81533002BD4
